:100000000C9461000C947E000C947E000C947E0095
:100010000C947E000C947E000C947E000C947E0068
:100020000C947E000C947E000C947E000C947E0058
:100030000C947E000C947E000C947E000C947E0048
:100040000C94FC040C947E000C947E000C947E00B6
:100050000C947E000C947E000C947E000C947E0028
:100060000C947E000C947E00000000002400270009
:100070002A0000000000250028002B0000000000DE
:1000800023002600290004040404040404040202DA
:100090000202020203030303030301020408102007
:1000A0004080010204081020010204081020000012
:1000B0000007000201000003040600000000000029
:1000C000000011241FBECFEFD8E0DEBFCDBF11E08E
:1000D000A0E0B1E0E6ECF2E102C005900D92A4329E
:1000E000B107D9F711E0A4E2B1E001C01D92AD3231
:1000F000B107E1F70E9428070C9461090C940000F5
:10010000AEE0B0E0E6E8F0E00C9438090D891E8915
:1001100086E08C831A8309838FEF9FE79E838D830C
:100120009E01275E3F4FCE0101966F89788DA90110
:100130000E94A4002F813885020F131FF80110823E
:100140002E96E4E00C945409ABE0B0E0EAEAF0E06B
:100150000C942A093C012B015A01FC0117821682DA
:10016000838181FD03C06FEF7FEFC6C19AE0892EC6
:100170001E010894211C311CF3012381F20123FD8F
:10018000859123FF81912F01882309F4B2C1853223
:1001900039F423FD859123FF81912F01853229F4C4
:1001A00090E0B3010E949702E7CF982FFF24EE243E
:1001B0009924FFE1FF15D0F09B3269F09C3228F4BE
:1001C000903259F0933291F40EC09D3249F0903341
:1001D00069F441E024C052E0F52A84E0F82A28C0FE
:1001E00098E0F92A25C0E0E1FE2A22C0F7FC29C0E8
:1001F000892F80538A3070F4F6FE05C0989C902CAD
:100200001124980E15C0E89CE02C1124E80EF0E2B1
:10021000FF2A0EC09E3229F4F6FC6BC140E4F42A9A
:1002200007C09C3619F450E8F52A02C0983649F404
:10023000F20123FD959123FF91912F01992309F05C
:10024000B8CF892F8554833018F08052833038F42A
:1002500044E050E0A40EB51E5FE359830FC093360F
:1002600031F0933779F0933509F056C020C0F5018D
:100270008081898342E050E0A40EB51E610101E057
:1002800010E012C0F501C080D180F6FC03C06FEF12
:100290007FEF02C0692D70E042E050E0A40EB51E71
:1002A000C6010E948C028C015FE7F52214C0F501A3
:1002B000C080D180F6FC03C06FEF7FEF02C0692DD4
:1002C00070E042E050E0A40EB51EC6010E9481021B
:1002D0008C0150E8F52AF3FE07C01AC080E290E0D6
:1002E000B3010E949702EA948E2D90E00817190737
:1002F000A8F30EC0F601F7FC8591F7FE81916F011E
:1003000090E0B3010E949702E110EA94015010407E
:100310000115110579F7EAC0943611F0993669F59F
:10032000F7FE08C0F501208131814281538184E0CC
:1003300090E00AC0F501808191819C01442737FD3E
:100340004095542F82E090E0A80EB91E9FE6F92256
:1003500057FF09C050954095309521953F4F4F4F1D
:100360005F4FE0E8FE2ACA01B901A1012AE030E0AE
:100370000E94C302D82ED21840C0953729F41F2DF1
:100380001F7E2AE030E01DC01F2D197F9F3661F0CF
:10039000903720F4983509F0ACC00FC0903739F091
:1003A000983709F0A6C004C028E030E00AC0106108
:1003B00014FD146020E130E004C014FD166020E15B
:1003C00032E017FF08C0F50160817181828193815D
:1003D00044E050E008C0F50180819181BC0180E0DB
:1003E00090E042E050E0A40EB51EA1010E94C302BD
:1003F000D82ED2188FE7F82EF122F6FE0BC05EEF52
:10040000F522D91438F4F4FE07C0F2FC05C08FEED3
:10041000F82202C01D2D01C0192DF4FE0DC0FE01F1
:10042000ED0DF11D8081803319F499EEF92208C099
:100430001F5FF2FE05C003C08F2D867809F01F5F95
:100440000F2DF3FC14C0F0FE0FC01E1510F09D2CF4
:100450000BC09D2C9E0C911A1E2D06C080E290E0D0
:10046000B3010E9497021F5F1E15C0F304C01E1542
:1004700010F4E11A01C0EE2404FF0FC080E390E005
:10048000B3010E94970202FF1DC001FD03C088E76F
:1004900090E00EC088E590E00BC0802F867891F048
:1004A00001FF02C08BE201C080E2F7FC8DE290E028
:1004B000B3010E94970206C080E390E0B3010E945E
:1004C00097029A94D914C0F3DA94F101ED0DF11D5D
:1004D000808190E0B3010E949702DD20A9F706C059
:1004E00080E290E0B3010E949702EA94EE20C1F707
:1004F00043CEF30166817781CB012B96E2E10C9428
:100500004609FC010590615070400110D8F78095B4
:1005100090958E0F9F1F0895FC01615070400190CF
:100520000110D8F7809590958E0F9F1F08950F9317
:100530001F93CF93DF938C01EB018B8181FF1BC055
:1005400082FF0DC02E813F818C819D812817390744
:1005500064F4E881F9810193F983E88306C0E885B2
:10056000F985802F0995892B31F48E819F81019621
:100570009F838E8302C00FEF1FEFC801DF91CF91E1
:100580001F910F910895FA01AA27283051F12031C7
:1005900081F1E8946F936E7F6E5F7F4F8F4F9F4F17
:1005A000AF4FB1E03ED0B4E03CD0670F781F891F59
:1005B0009A1FA11D680F791F8A1F911DA11D6A0F27
:1005C000711D811D911DA11D20D009F468943F91DA
:1005D0002AE0269F11243019305D3193DEF6CF01D9
:1005E0000895462F4770405D4193B3E00FD0C9F79F
:1005F000F6CF462F4F70405D4A3318F0495D31FD0C
:100600004052419302D0A9F7EACFB4E0A69597955E
:10061000879577956795BA95C9F700976105710534
:1006200008959B01AC010A2E06945795479537957E
:100630002795BA95C9F7620F731F841F951FA01DD8
:100640000895EF92FF920F931F93CF93DF93E82EBD
:10065000F62E00E010E0C0E0D0E08F2D61E00E94B7
:1006600081068E2D0E94D5060C2E02C0880F991F80
:100670000A94E2F7082B192B8F2D60E00E94810667
:100680002196CC30D10549F7C801DF91CF911F9158
:100690000F91FF90EF9008952F923F924F925F92AB
:1006A0006F927F928F929F92AF92BF92CF92DF9282
:1006B000EF92FF920F931F93DF93CF93CDB7DEB7E7
:1006C000C454D0400FB6F894DEBF0FBECDBF86E055
:1006D00060E00E94810685E060E00E94810684E07F
:1006E00061E00E94810686E061E00E94810662E38B
:1006F00070E080E090E00E94440586E060E00E94A7
:10070000810684E090E00E949D0582E090E065E033
:1007100070E00E942103AA2797FDA095BA2FBC0183
:10072000CD010E941B0823E333E343EB5FE30E9408
:1007300080070E94E8073B014C017B0183E090E0C9
:100740000E949D0582E090E065E070E00E94210338
:10075000AA2797FDA095BA2FBC01CD010E941B08C6
:100760002DEC3CEC4CE85FE30E9480070E94E80718
:100770005B016C012B0183E090E00E949D0582E00B
:1007800090E065E070E00E942103AA2797FDA09504
:10079000BA2FBC01CD010E941B082DEC3CEC4CE8AB
:1007A0005FE30E9480070E94E8071B012DB73EB758
:1007B0002A5030400FB6F8943EBF0FBE2DBFEDB7A4
:1007C000FEB731969E012F5F3F4FADB7BEB7129671
:1007D0003C932E93119720E031E03383228375827E
:1007E0006482B782A682718760870E948000EDB71D
:1007F000FEB736960FB6F894FEBF0FBEEDBF0027CA
:10080000F7FC0095102FFFEF6F2E712C812C912C8F
:10081000ADB7BEB711966D927D928D929C92149752
:10082000C801B70120E030E040E050E0EFEFEE2EED
:10083000EFE0FE2E012D112DAA24BB2465010E949C
:10084000370725967FAF6EAF2597B201882777FDD2
:100850008095982FEDB7FEB7618272828382948271
:1008600020E030E040E050E00E94370723967FAF61
:100870006EAF2397442437FC4094542CADB7BEB7D9
:1008800011966D927D928D929C921497C201B10146
:1008900020E030E040E050E00E9437077B012396E3
:1008A0006EAD7FAD23972596EEADFFAD25976E0F0C
:1008B0007F1F6E0D7F1D0F900F900F900F90643073
:1008C00071055CF425961FAE1EAE259723961FAECC
:1008D0001EAE2397EE24FF242DC06F3F710554F503
:1008E0008FEF90E00E94C60825964EAD5FAD25972C
:1008F000469F9001479F300D569F300D112425963D
:100900003FAF2EAF25972396EEADFFAD2397E69F21
:10091000D001E79FB00DF69FB00D11242396BFAF15
:10092000AEAF23979701269F7001279FF00C369F4B
:10093000F00C11240FEF10E0B80125964EAD5FAD1D
:100940002597641B750B89E00E94E205B801239688
:100950008EAD9FAD2397681B790B8AE00E94E2055C
:100960000E191F098BE0B8010E94E205CC5BDF4F36
:100970000FB6F894DEBF0FBECDBFCF91DF911F91B0
:100980000F91FF90EF90DF90CF90BF90AF909F902E
:100990008F907F906F905F904F903F902F90089531
:1009A00082E060E00E94420684E061E00E9442062C
:1009B00085E061E00E94420686E061E00E94420616
:1009C00089E061E00E9442068AE061E00E944206FE
:1009D0008BE061E00E94420689E060E070E00E94E6
:1009E000E2058AE060E070E00E94E2058BE060E0F2
:1009F00070E00E94E20508951F920F920FB60F92C9
:100A000011242F933F938F939F93AF93BF93809124
:100A1000280190912901A0912A01B0912B013091D8
:100A20002C010196A11DB11D232F2D5F2D3720F024
:100A30002D570196A11DB11D20932C0180932801F3
:100A400090932901A0932A01B0932B018091240156
:100A500090912501A0912601B09127010196A11D39
:100A6000B11D8093240190932501A0932601B0939A
:100A70002701BF91AF919F918F913F912F910F903F
:100A80000FBE0F901F9018959B01AC017FB7F89493
:100A90008091240190912501A0912601B091270118
:100AA00066B5A89B05C06F3F19F00196A11DB11D49
:100AB0007FBFBA2FA92F982F8827860F911DA11DC0
:100AC000B11D62E0880F991FAA1FBB1F6A95D1F75D
:100AD000BC012DC0FFB7F8948091240190912501AD
:100AE000A0912601B0912701E6B5A89B05C0EF3F74
:100AF00019F00196A11DB11DFFBFBA2FA92F982F84
:100B000088278E0F911DA11DB11DE2E0880F991F4E
:100B1000AA1FBB1FEA95D1F7861B970B885E9340EF
:100B2000C8F2215030404040504068517C4F211560
:100B300031054105510571F60895019739F0880F87
:100B4000991F880F991F02970197F1F708957894DC
:100B500084B5826084BD84B5816084BD85B58260C2
:100B600085BD85B5816085BDEEE6F0E08081816060
:100B70008083E1E8F0E01082808182608083808160
:100B800081608083E0E8F0E0808181608083E1EB38
:100B9000F0E0808184608083E0EBF0E08081816020
:100BA0008083EAE7F0E080818460808380818260D6
:100BB00080838081816080838081806880831092BF
:100BC000C10008951F93CF93DF93182FEB0161E0CD
:100BD0000E944206209709F44AC0CF3FD10509F48C
:100BE00049C0E12FF0E0E255FF4F84918330C1F01E
:100BF000843028F4813051F08230B1F50CC0863059
:100C000019F1873049F1843079F514C084B58068D2
:100C100084BDC7BD33C084B5806284BDC8BD2EC04D
:100C200080918000806880938000D0938900C09379
:100C3000880024C080918000806280938000D093DF
:100C40008B00C0938A001AC08091B00080688093A6
:100C5000B000C093B30012C08091B0008062809356
:100C6000B000C093B4000AC0C038D1051CF4812F75
:100C700060E002C0812F61E00E948106DF91CF9188
:100C80001F910895CF93DF93482F50E0CA018656F5
:100C90009F4FFC0134914A575F4FFA01849188239A
:100CA00069F190E0880F991FFC01E859FF4FA59169
:100CB000B491FC01EE58FF4FC591D491662351F4D5
:100CC0002FB7F8948C91932F909589238C938881DA
:100CD00089230BC0623061F42FB7F8948C91932F65
:100CE000909589238C938881832B88832FBF06C09E
:100CF0009FB7F8948C91832B8C939FBFDF91CF91FA
:100D00000895482F50E0CA0182559F4FFC0124915D
:100D1000CA0186569F4FFC0194914A575F4FFA01D2
:100D20003491332309F440C0222351F1233071F070
:100D3000243028F42130A1F0223011F514C02630DF
:100D4000B1F02730C1F02430D9F404C08091800084
:100D50008F7703C0809180008F7D8093800010C0CA
:100D600084B58F7702C084B58F7D84BD09C0809122
:100D7000B0008F7703C08091B0008F7D8093B0006A
:100D8000E32FF0E0EE0FFF1FEE58FF4FA591B49157
:100D90002FB7F894662321F48C919095892302C093
:100DA0008C91892B8C932FBF0895682F70E0CB0115
:100DB00082559F4FFC012491CB0186569F4FFC0129
:100DC00044916A577F4FFB019491992319F420E0D5
:100DD00030E03CC0222351F1233071F0243028F45C
:100DE0002130A1F0223011F514C02630B1F02730A7
:100DF000C1F02430D9F404C0809180008F7703C003
:100E0000809180008F7D8093800010C084B58F77A3
:100E100002C084B58F7D84BD09C08091B0008F77FA
:100E200003C08091B0008F7D8093B000892F90E047
:100E3000880F991F84589F4FFC01A591B4918C9104
:100E400020E030E0842311F021E030E0C901089572
:100E5000CF93DF930E94A7050E94D004C0E0D0E0AA
:100E60000E944C032097E1F30E940000F9CF2F92DB
:100E70003F924F925F926F927F928F929F92AF922A
:100E8000BF92CF92DF92EF92FF920F931F93DF9367
:100E9000CF93CDB7DEB73B014C0119012A016D8913
:100EA0007E898F89988D6A197B098C099D09621A40
:100EB000730A840A950AA40193010E94A708E21804
:100EC000F30804091509A80197010E94D9082A0D01
:100ED0003B1D4C1D5D1DB901CA01CF91DF911F91D2
:100EE0000F91FF90EF90DF90CF90BF90AF909F90C9
:100EF0008F907F906F905F904F903F902F900895CC
:100F00000CD0EBC0E3D040F0DAD030F021F45F3FFA
:100F100019F0CCC0511115C1CFC0F0D098F399236E
:100F2000C9F35523B1F3951B550BBB27AA276217AD
:100F30007307840738F09F5F5F4F220F331F441FF2
:100F4000AA1FA9F333D00E2E3AF0E0E830D091502A
:100F50005040E695001CCAF729D0FE2F27D0660F17
:100F6000771F881FBB1F261737074807AB07B0E856
:100F700009F0BB0B802DBF01FF2793585F4F2AF06C
:100F80009E3F510568F092C0DCC05F3FECF3983E95
:100F9000DCF3869577956795B795F7959F5FC9F7C9
:100FA000880F911D9695879597F90895E1E0660F52
:100FB000771F881FBB1F621773078407BA0720F0CB
:100FC000621B730B840BBA0BEE1F88F7E095089534
:100FD00004D06894B111B5C0089598D088F09F5797
:100FE00090F0B92F9927B751A0F0D1F0660F771F75
:100FF000881F991F1AF0BA95C9F712C0B13081F055
:101000009FD0B1E008959CC0672F782F8827B85FE4
:1010100039F0B93FCCF3869577956795B395D9F7B5
:101020003EF490958095709561957F4F8F4F9F4FBF
:101030000895E89409C097FB3EF4909580957095CB
:1010400061957F4F8F4F9F4F9923A9F0F92F96E914
:10105000BB279395F695879577956795B795F11189
:10106000F8CFFAF4BB0F11F460FF1BC06F5F7F4F26
:101070008F4F9F4F16C0882311F096E911C0772338
:1010800021F09EE8872F762F05C0662371F096E841
:10109000862F70E060E02AF09A95660F771F881F10
:1010A000DAF7880F9695879597F9089597F99F67CE
:1010B00080E870E060E008959FEF80EC08950024E0
:1010C0000A941616170618060906089500240A94AD
:1010D00012161306140605060895092E0394000C33
:1010E00011F4882352F0BB0F40F4BF2B11F460FFC2
:1010F00004C06F5F7F4F8F4F9F4F089557FD9058EB
:10110000440F551F59F05F3F71F04795880F97FBCB
:10111000991F61F09F3F79F0879508951216130685
:101120001406551FF2CF4695F1DF08C016161706B4
:101130001806991FF1CF86957105610508940895E9
:10114000E894BB2766277727CB0197F90895629F1C
:10115000D001739FF001829FE00DF11D649FE00DAF
:10116000F11D929FF00D839FF00D749FF00D659F10
:10117000F00D9927729FB00DE11DF91F639FB00D0F
:10118000E11DF91FBD01CF011124089597FB092E20
:1011900007260AD077FD04D027D006D000201AF405
:1011A000709561957F4F0895F6F7909581959F4FC3
:1011B000089597FB092E05260ED057FD04D028D0A0
:1011C0000AD0001C38F450954095309521953F4F3A
:1011D0004F4F5F4F0895F6F7909580957095619504
:1011E0007F4F8F4F9F4F0895AA1BBB1B51E107C034
:1011F000AA1FBB1FA617B70710F0A61BB70B881FA7
:10120000991F5A95A9F780959095BC01CD01089535
:10121000A1E21A2EAA1BBB1BFD010DC0AA1FBB1FFA
:10122000EE1FFF1FA217B307E407F50720F0A21B6C
:10123000B30BE40BF50B661F771F881F991F1A94D9
:1012400069F760957095809590959B01AC01BD0103
:10125000CF0108952F923F924F925F926F927F92AB
:101260008F929F92AF92BF92CF92DF92EF92FF92B6
:101270000F931F93CF93DF93CDB7DEB7CA1BDB0B62
:101280000FB6F894DEBF0FBECDBF09942A88398807
:1012900048885F846E847D848C849B84AA84B9840E
:1012A000C884DF80EE80FD800C811B81AA81B9811A
:1012B000CE0FD11D0FB6F894DEBF0FBECDBFED012E
:0612C0000895F894FFCF31
:1012C600526564203D202534642C20477265656E86
:1012D600203D202534642C20426C7565203D202558
:0412E600346400006C
:00000001FF
